{
  "contractName": "Votes",
  "abi": [
    {
      "inputs": [],
      "stateMutability": "nonpayable",
      "type": "constructor"
    },
    {
      "anonymous": false,
      "inputs": [
        {
          "indexed": true,
          "internalType": "uint256",
          "name": "issuesid",
          "type": "uint256"
        },
        {
          "indexed": false,
          "internalType": "bool",
          "name": "open",
          "type": "bool"
        }
      ],
      "name": "StatusChange",
      "type": "event"
    },
    {
      "anonymous": false,
      "inputs": [
        {
          "indexed": true,
          "internalType": "uint256",
          "name": "issuesid",
          "type": "uint256"
        },
        {
          "indexed": false,
          "internalType": "address",
          "name": "voter",
          "type": "address"
        },
        {
          "indexed": true,
          "internalType": "uint256",
          "name": "option",
          "type": "uint256"
        }
      ],
      "name": "Vote",
      "type": "event"
    },
    {
      "inputs": [],
      "name": "open",
      "outputs": [],
      "stateMutability": "nonpayable",
      "type": "function"
    },
    {
      "inputs": [],
      "name": "close",
      "outputs": [],
      "stateMutability": "nonpayable",
      "type": "function"
    },
    {
      "inputs": [
        {
          "internalType": "uint256",
          "name": "option",
          "type": "uint256"
        }
      ],
      "name": "vote",
      "outputs": [],
      "stateMutability": "nonpayable",
      "type": "function"
    },
    {
      "inputs": [],
      "name": "status",
      "outputs": [
        {
          "internalType": "bool",
          "name": "open_",
          "type": "bool"
        }
      ],
      "stateMutability": "view",
      "type": "function",
      "constant": true
    },
    {
      "inputs": [],
      "name": "ballot",
      "outputs": [
        {
          "internalType": "uint256",
          "name": "option",
          "type": "uint256"
        }
      ],
      "stateMutability": "view",
      "type": "function",
      "constant": true
    },
    {
      "inputs": [],
      "name": "scores",
      "outputs": [
        {
          "internalType": "uint256[]",
          "name": "",
          "type": "uint256[]"
        }
      ],
      "stateMutability": "view",
      "type": "function",
      "constant": true
    }
  ],
  "bytecode": "0x608060405234801561001057600080fd5b50336000806101000a81548173ffffffffffffffffffffffffffffffffffffffff021916908373ffffffffffffffffffffffffffffffffffffffff16021790555060016003819055506003600481905550610f67806100706000396000f3fe608060405234801561001057600080fd5b50600436106100625760003560e01c80630121b93f14610067578063200d2ed21461008357806343d726d6146100a1578063ac3910a2146100ab578063afddafa3146100c9578063fcfff16f146100e7575b600080fd5b610081600480360381019061007c9190610937565b6100f1565b005b61008b61039b565b604051610098919061097f565b60405180910390f35b6100a96103c8565b005b6100b3610529565b6040516100c091906109a9565b60405180910390f35b6100d1610628565b6040516100de9190610a82565b60405180910390f35b6100ef610696565b005b60016000600254815260200190815260200160002060000160009054906101000a900460ff16610156576040517f08c379a000000000000000000000000000000000000000000000000000000000815260040161014d90610b01565b60405180910390fd5b60016000600254815260200190815260200160002060010160003373ffffffffffffffffffffffffffffffffffffffff1673ffffffffffffffffffffffffffffffffffffffff16815260200190815260200160002060009054906101000a900460ff16156101f9576040517f08c379a00000000000000000000000000000000000000000000000000000000081526004016101f090610b6d565b60405180910390fd5b600354811015801561020d57506004548111155b61024c576040517f08c379a000000000000000000000000000000000000000000000000000000000815260040161024390610bd9565b60405180910390fd5b600160006002548152602001908152602001600020600301818154811061027657610275610bf9565b5b90600052602060002001600081548092919061029190610c57565b91905055506001806000600254815260200190815260200160002060010160003373ffffffffffffffffffffffffffffffffffffffff1673ffffffffffffffffffffffffffffffffffffffff16815260200190815260200160002060006101000a81548160ff0219169083151502179055508060016000600254815260200190815260200160002060020160003373ffffffffffffffffffffffffffffffffffffffff1673ffffffffffffffffffffffffffffffffffffffff16815260200190815260200160002081905550806002547f710b36627495d2e7af3a196c85bf3e51efd906f54516753e5e801b3a22b18f78336040516103909190610ce1565b60405180910390a350565b600060016000600254815260200190815260200160002060000160009054906101000a900460ff16905090565b60008054906101000a900473ffffffffffffffffffffffffffffffffffffffff1673ffffffffffffffffffffffffffffffffffffffff163373ffffffffffffffffffffffffffffffffffffffff1614610456576040517f08c379a000000000000000000000000000000000000000000000000000000000815260040161044d90610d48565b60405180910390fd5b60016000600254815260200190815260200160002060000160009054906101000a900460ff166104bb576040517f08c379a00000000000000000000000000000000000000000000000000000000081526004016104b290610db4565b60405180910390fd5b600060016000600254815260200190815260200160002060000160006101000a81548160ff0219169083151502179055506002547fd47e073b3bafc2bf58ecf7e117d02c3248e5002d18bf028847943eebf065029f600060405161051f919061097f565b60405180910390a2565b600060016000600254815260200190815260200160002060010160003373ffffffffffffffffffffffffffffffffffffffff1673ffffffffffffffffffffffffffffffffffffffff16815260200190815260200160002060009054906101000a900460ff166105cd576040517f08c379a00000000000000000000000000000000000000000000000000000000081526004016105c490610e20565b60405180910390fd5b60016000600254815260200190815260200160002060020160003373ffffffffffffffffffffffffffffffffffffffff1673ffffffffffffffffffffffffffffffffffffffff16815260200190815260200160002054905090565b606060016000600254815260200190815260200160002060030180548060200260200160405190810160405280929190818152602001828054801561068c57602002820191906000526020600020905b815481526020019060010190808311610678575b5050505050905090565b60008054906101000a900473ffffffffffffffffffffffffffffffffffffffff1673ffffffffffffffffffffffffffffffffffffffff163373ffffffffffffffffffffffffffffffffffffffff1614610724576040517f08c379a000000000000000000000000000000000000000000000000000000000815260040161071b90610d48565b60405180910390fd5b60016000600254815260200190815260200160002060000160009054906101000a900460ff161561078a576040517f08c379a000000000000000000000000000000000000000000000000000000000815260040161078190610e8c565b60405180910390fd5b6002600081548092919061079d90610c57565b91905055506001806000600254815260200190815260200160002060000160006101000a81548160ff02191690831515021790555060016004546107e19190610eac565b67ffffffffffffffff8111156107fa576107f9610f02565b5b6040519080825280602002602001820160405280156108285781602001602082028036833780820191505090505b506001600060025481526020019081526020016000206003019080519060200190610854929190610892565b506002547fd47e073b3bafc2bf58ecf7e117d02c3248e5002d18bf028847943eebf065029f6001604051610888919061097f565b60405180910390a2565b8280548282559060005260206000209081019282156108ce579160200282015b828111156108cd5782518255916020019190600101906108b2565b5b5090506108db91906108df565b5090565b5b808211156108f85760008160009055506001016108e0565b5090565b600080fd5b6000819050919050565b61091481610901565b811461091f57600080fd5b50565b6000813590506109318161090b565b92915050565b60006020828403121561094d5761094c6108fc565b5b600061095b84828501610922565b91505092915050565b60008115159050919050565b61097981610964565b82525050565b60006020820190506109946000830184610970565b92915050565b6109a381610901565b82525050565b60006020820190506109be600083018461099a565b92915050565b600081519050919050565b600082825260208201905092915050565b6000819050602082019050919050565b6109f981610901565b82525050565b6000610a0b83836109f0565b60208301905092915050565b6000602082019050919050565b6000610a2f826109c4565b610a3981856109cf565b9350610a44836109e0565b8060005b83811015610a75578151610a5c88826109ff565b9750610a6783610a17565b925050600181019050610a48565b5085935050505092915050565b60006020820190508181036000830152610a9c8184610a24565b905092915050565b600082825260208201905092915050565b7f766f746520636c6f736564000000000000000000000000000000000000000000600082015250565b6000610aeb600b83610aa4565b9150610af682610ab5565b602082019050919050565b60006020820190508181036000830152610b1a81610ade565b9050919050565b7f796f7527726520766f7465640000000000000000000000000000000000000000600082015250565b6000610b57600c83610aa4565b9150610b6282610b21565b602082019050919050565b60006020820190508181036000830152610b8681610b4a565b9050919050565b7f696e636f7272656374206f7074696f6e00000000000000000000000000000000600082015250565b6000610bc3601083610aa4565b9150610bce82610b8d565b602082019050919050565b60006020820190508181036000830152610bf281610bb6565b9050919050565b7f4e487b7100000000000000000000000000000000000000000000000000000000600052603260045260246000fd5b7f4e487b7100000000000000000000000000000000000000000000000000000000600052601160045260246000fd5b6000610c6282610901565b91507fffffffffffffffffffffffffffffffffffffffffffffffffffffffffffffffff821415610c9557610c94610c28565b5b600182019050919050565b600073ffffffffffffffffffffffffffffffffffffffff82169050919050565b6000610ccb82610ca0565b9050919050565b610cdb81610cc0565b82525050565b6000602082019050610cf66000830184610cd2565b92915050565b7f756e617574680000000000000000000000000000000000000000000000000000600082015250565b6000610d32600683610aa4565b9150610d3d82610cfc565b602082019050919050565b60006020820190508181036000830152610d6181610d25565b9050919050565b7f766f746520636c6f736500000000000000000000000000000000000000000000600082015250565b6000610d9e600a83610aa4565b9150610da982610d68565b602082019050919050565b60006020820190508181036000830152610dcd81610d91565b9050919050565b7f796f75277265206e6f7420766f74650000000000000000000000000000000000600082015250565b6000610e0a600f83610aa4565b9150610e1582610dd4565b602082019050919050565b60006020820190508181036000830152610e3981610dfd565b9050919050565b7f766f7465206f70656e696e670000000000000000000000000000000000000000600082015250565b6000610e76600c83610aa4565b9150610e8182610e40565b602082019050919050565b60006020820190508181036000830152610ea581610e69565b9050919050565b6000610eb782610901565b9150610ec283610901565b9250827fffffffffffffffffffffffffffffffffffffffffffffffffffffffffffffffff03821115610ef757610ef6610c28565b5b828201905092915050565b7f4e487b7100000000000000000000000000000000000000000000000000000000600052604160045260246000fdfea2646970667358221220249316f87f16ac75ceb185a9d857e2172197c341a722f81948625e2fdd8b92bd64736f6c634300080a0033",
  "immutableReferences": {},
  "source": "// SPDX-License-Identifier: GPL-3.0\r\n\r\npragma solidity >=0.7.0 <0.9.0;\r\n\r\n struct Issue{\r\n     bool open;\r\n     mapping(address => bool) voted;\r\n     mapping(address => uint) ballots;\r\n     uint[] scores;\r\n\r\n }\r\n\r\ncontract Votes {\r\n\r\n    address _admin;\r\n    mapping(uint => Issue) _issues;\r\n    uint _issuesId;\r\n    uint _min;\r\n    uint _max;\r\n\r\n\r\n        event StatusChange(uint indexed issuesid, bool open);\r\n        event Vote(uint indexed issuesid, address voter, uint indexed option);\r\n\r\n\r\n    constructor() {\r\n        _admin = msg.sender;\r\n        _min = 1;\r\n        _max = 3;\r\n\r\n       \r\n    }\r\n\r\n    modifier onlyAdmin {\r\n        require(msg.sender == _admin, \"unauth\");\r\n        _;\r\n    }\r\n\r\n    function open() public onlyAdmin {\r\n        require(!_issues[_issuesId].open,\"vote opening\");\r\n\r\n        _issuesId++ ;\r\n        _issues[_issuesId].open = true;\r\n        _issues[_issuesId].scores = new uint[](_max+1);\r\n        emit StatusChange(_issuesId,true);\r\n    }\r\n\r\n    function close() public onlyAdmin {\r\n        require(_issues[_issuesId].open, \"vote close\");\r\n\r\n        _issues[_issuesId].open = false;\r\n        emit StatusChange(_issuesId,false);\r\n    }\r\n\r\n    function vote(uint option) public {\r\n        require(_issues[_issuesId].open, \"vote closed\");\r\n        require(!_issues[_issuesId].voted[msg.sender], \"you're voted\");\r\n        require(option >= _min && option <=_max, \"incorrect option\");\r\n\r\n        _issues[_issuesId].scores[option]++;\r\n        _issues[_issuesId].voted[msg.sender] = true;\r\n        _issues[_issuesId].ballots[msg.sender] = option;\r\n        emit Vote(_issuesId, msg.sender, option);\r\n        \r\n    }\r\n\r\n    function status() public view returns(bool open_) {\r\n        return _issues[_issuesId].open;\r\n    }\r\n\r\n    function ballot() public view returns(uint option) {\r\n        require(_issues[_issuesId].voted[msg.sender], \"you're not vote\");\r\n        return _issues[_issuesId].ballots[msg.sender];\r\n\r\n    }\r\n\r\n    function scores() public view returns(uint[] memory){\r\n        return _issues[_issuesId].scores;\r\n    }\r\n}",
  "sourcePath": "D:\\portfolio2\\truffle\\contracts\\Votes.sol",
  "compiler": {
    "name": "solc",
    "version": "0.8.10+commit.fc410830.Emscripten.clang"
  },
  "schemaVersion": "3.4.4",
  "updatedAt": "2022-01-21T19:37:40.657Z",
  "networkType": "ethereum",
  "devdoc": {
    "kind": "dev",
    "methods": {},
    "version": 1
  },
  "userdoc": {
    "kind": "user",
    "methods": {},
    "version": 1
  }
}